{"abi":[{"type":"constructor","inputs":[{"name":"asset_","type":"address","internalType":"contract IERC20"},{"name":"name_","type":"string","internalType":"string"},{"name":"symbol_","type":"string","internalType":"string"},{"name":"owner_","type":"address","internalType":"address"}],"stateMutability":"nonpayable"},{"type":"function","name":"allowance","inputs":[{"name":"owner","type":"address","internalType":"address"},{"name":"spender","type":"address","internalType":"address"}],"outputs":[{"name":"","type":"uint256","internalType":"uint256"}],"stateMutability":"view"},{"type":"function","name":"approve","inputs":[{"name":"spender","type":"address","internalType":"address"},{"name":"value","type":"uint256","internalType":"uint256"}],"outputs":[{"name":"","type":"bool","internalType":"bool"}],"stateMutability":"nonpayable"},{"type":"function","name":"asset","inputs":[],"outputs":[{"name":"","type":"address","internalType":"address"}],"stateMutability":"view"},{"type":"function","name":"balanceOf","inputs":[{"name":"account","type":"address","internalType":"address"}],"outputs":[{"name":"","type":"uint256","internalType":"uint256"}],"stateMutability":"view"},{"type":"function","name":"convertToAssets","inputs":[{"name":"shares","type":"uint256","internalType":"uint256"}],"outputs":[{"name":"","type":"uint256","internalType":"uint256"}],"stateMutability":"view"},{"type":"function","name":"convertToShares","inputs":[{"name":"assets","type":"uint256","internalType":"uint256"}],"outputs":[{"name":"","type":"uint256","internalType":"uint256"}],"stateMutability":"view"},{"type":"function","name":"decimals","inputs":[],"outputs":[{"name":"","type":"uint8","internalType":"uint8"}],"stateMutability":"view"},{"type":"function","name":"deposit","inputs":[{"name":"assets","type":"uint256","internalType":"uint256"},{"name":"receiver","type":"address","internalType":"address"}],"outputs":[{"name":"","type":"uint256","internalType":"uint256"}],"stateMutability":"nonpayable"},{"type":"function","name":"harvest","inputs":[{"name":"amount","type":"uint256","internalType":"uint256"}],"outputs":[],"stateMutability":"nonpayable"},{"type":"function","name":"maxDeposit","inputs":[{"name":"","type":"address","internalType":"address"}],"outputs":[{"name":"","type":"uint256","internalType":"uint256"}],"stateMutability":"view"},{"type":"function","name":"maxMint","inputs":[{"name":"","type":"address","internalType":"address"}],"outputs":[{"name":"","type":"uint256","internalType":"uint256"}],"stateMutability":"view"},{"type":"function","name":"maxRedeem","inputs":[{"name":"owner","type":"address","internalType":"address"}],"outputs":[{"name":"","type":"uint256","internalType":"uint256"}],"stateMutability":"view"},{"type":"function","name":"maxWithdraw","inputs":[{"name":"owner","type":"address","internalType":"address"}],"outputs":[{"name":"","type":"uint256","internalType":"uint256"}],"stateMutability":"view"},{"type":"function","name":"mint","inputs":[{"name":"shares","type":"uint256","internalType":"uint256"},{"name":"receiver","type":"address","internalType":"address"}],"outputs":[{"name":"","type":"uint256","internalType":"uint256"}],"stateMutability":"nonpayable"},{"type":"function","name":"name","inputs":[],"outputs":[{"name":"","type":"string","internalType":"string"}],"stateMutability":"view"},{"type":"function","name":"owner","inputs":[],"outputs":[{"name":"","type":"address","internalType":"address"}],"stateMutability":"view"},{"type":"function","name":"previewDeposit","inputs":[{"name":"assets","type":"uint256","internalType":"uint256"}],"outputs":[{"name":"","type":"uint256","internalType":"uint256"}],"stateMutability":"view"},{"type":"function","name":"previewMint","inputs":[{"name":"shares","type":"uint256","internalType":"uint256"}],"outputs":[{"name":"","type":"uint256","internalType":"uint256"}],"stateMutability":"view"},{"type":"function","name":"previewRedeem","inputs":[{"name":"shares","type":"uint256","internalType":"uint256"}],"outputs":[{"name":"","type":"uint256","internalType":"uint256"}],"stateMutability":"view"},{"type":"function","name":"previewWithdraw","inputs":[{"name":"assets","type":"uint256","internalType":"uint256"}],"outputs":[{"name":"","type":"uint256","internalType":"uint256"}],"stateMutability":"view"},{"type":"function","name":"redeem","inputs":[{"name":"shares","type":"uint256","internalType":"uint256"},{"name":"receiver","type":"address","internalType":"address"},{"name":"owner","type":"address","internalType":"address"}],"outputs":[{"name":"","type":"uint256","internalType":"uint256"}],"stateMutability":"nonpayable"},{"type":"function","name":"renounceOwnership","inputs":[],"outputs":[],"stateMutability":"nonpayable"},{"type":"function","name":"symbol","inputs":[],"outputs":[{"name":"","type":"string","internalType":"string"}],"stateMutability":"view"},{"type":"function","name":"totalAssets","inputs":[],"outputs":[{"name":"","type":"uint256","internalType":"uint256"}],"stateMutability":"view"},{"type":"function","name":"totalSupply","inputs":[],"outputs":[{"name":"","type":"uint256","internalType":"uint256"}],"stateMutability":"view"},{"type":"function","name":"transfer","inputs":[{"name":"to","type":"address","internalType":"address"},{"name":"value","type":"uint256","internalType":"uint256"}],"outputs":[{"name":"","type":"bool","internalType":"bool"}],"stateMutability":"nonpayable"},{"type":"function","name":"transferFrom","inputs":[{"name":"from","type":"address","internalType":"address"},{"name":"to","type":"address","internalType":"address"},{"name":"value","type":"uint256","internalType":"uint256"}],"outputs":[{"name":"","type":"bool","internalType":"bool"}],"stateMutability":"nonpayable"},{"type":"function","name":"transferOwnership","inputs":[{"name":"newOwner","type":"address","internalType":"address"}],"outputs":[],"stateMutability":"nonpayable"},{"type":"function","name":"withdraw","inputs":[{"name":"assets","type":"uint256","internalType":"uint256"},{"name":"receiver","type":"address","internalType":"address"},{"name":"owner","type":"address","internalType":"address"}],"outputs":[{"name":"","type":"uint256","internalType":"uint256"}],"stateMutability":"nonpayable"},{"type":"event","name":"Approval","inputs":[{"name":"owner","type":"address","indexed":true,"internalType":"address"},{"name":"spender","type":"address","indexed":true,"internalType":"address"},{"name":"value","type":"uint256","indexed":false,"internalType":"uint256"}],"anonymous":false},{"type":"event","name":"Deposit","inputs":[{"name":"sender","type":"address","indexed":true,"internalType":"address"},{"name":"owner","type":"address","indexed":true,"internalType":"address"},{"name":"assets","type":"uint256","indexed":false,"internalType":"uint256"},{"name":"shares","type":"uint256","indexed":false,"internalType":"uint256"}],"anonymous":false},{"type":"event","name":"Harvest","inputs":[{"name":"amountAdded","type":"uint256","indexed":false,"internalType":"uint256"}],"anonymous":false},{"type":"event","name":"OwnershipTransferred","inputs":[{"name":"previousOwner","type":"address","indexed":true,"internalType":"address"},{"name":"newOwner","type":"address","indexed":true,"internalType":"address"}],"anonymous":false},{"type":"event","name":"Transfer","inputs":[{"name":"from","type":"address","indexed":true,"internalType":"address"},{"name":"to","type":"address","indexed":true,"internalType":"address"},{"name":"value","type":"uint256","indexed":false,"internalType":"uint256"}],"anonymous":false},{"type":"event","name":"Withdraw","inputs":[{"name":"sender","type":"address","indexed":true,"internalType":"address"},{"name":"receiver","type":"address","indexed":true,"internalType":"address"},{"name":"owner","type":"address","indexed":true,"internalType":"address"},{"name":"assets","type":"uint256","indexed":false,"internalType":"uint256"},{"name":"shares","type":"uint256","indexed":false,"internalType":"uint256"}],"anonymous":false},{"type":"error","name":"ERC20InsufficientAllowance","inputs":[{"name":"spender","type":"address","internalType":"address"},{"name":"allowance","type":"uint256","internalType":"uint256"},{"name":"needed","type":"uint256","internalType":"uint256"}]},{"type":"error","name":"ERC20InsufficientBalance","inputs":[{"name":"sender","type":"address","internalType":"address"},{"name":"balance","type":"uint256","internalType":"uint256"},{"name":"needed","type":"uint256","internalType":"uint256"}]},{"type":"error","name":"ERC20InvalidApprover","inputs":[{"name":"approver","type":"address","internalType":"address"}]},{"type":"error","name":"ERC20InvalidReceiver","inputs":[{"name":"receiver","type":"address","internalType":"address"}]},{"type":"error","name":"ERC20InvalidSender","inputs":[{"name":"sender","type":"address","internalType":"address"}]},{"type":"error","name":"ERC20InvalidSpender","inputs":[{"name":"spender","type":"address","internalType":"address"}]},{"type":"error","name":"ERC4626ExceededMaxDeposit","inputs":[{"name":"receiver","type":"address","internalType":"address"},{"name":"assets","type":"uint256","internalType":"uint256"},{"name":"max","type":"uint256","internalType":"uint256"}]},{"type":"error","name":"ERC4626ExceededMaxMint","inputs":[{"name":"receiver","type":"address","internalType":"address"},{"name":"shares","type":"uint256","internalType":"uint256"},{"name":"max","type":"uint256","internalType":"uint256"}]},{"type":"error","name":"ERC4626ExceededMaxRedeem","inputs":[{"name":"owner","type":"address","internalType":"address"},{"name":"shares","type":"uint256","internalType":"uint256"},{"name":"max","type":"uint256","internalType":"uint256"}]},{"type":"error","name":"ERC4626ExceededMaxWithdraw","inputs":[{"name":"owner","type":"address","internalType":"address"},{"name":"assets","type":"uint256","internalType":"uint256"},{"name":"max","type":"uint256","internalType":"uint256"}]},{"type":"error","name":"OwnableInvalidOwner","inputs":[{"name":"owner","type":"address","internalType":"address"}]},{"type":"error","name":"OwnableUnauthorizedAccount","inputs":[{"name":"account","type":"address","internalType":"address"}]},{"type":"error","name":"SafeERC20FailedOperation","inputs":[{"name":"token","type":"address","internalType":"address"}]}],"bytecode":{"object":"0x60c060405234801562000010575f80fd5b50604051620018f0380380620018f08339810160408190526200003391620002b4565b808484846003620000458382620003cd565b506004620000548282620003cd565b5050505f806200006a83620000d060201b60201c565b91509150816200007c5760126200007e565b805b60ff1660a05250506001600160a01b039081166080528116620000ba57604051631e4fbdf760e01b81525f600482015260240160405180910390fd5b620000c58162000169565b505050505062000499565b5f8080620000dd60405190565b6040805160048152602481019091526020810180516001600160e01b0390811663313ce56760e01b179091529192505f9182916200011f91889190620001ba16565b5090925090506200012f83604052565b8180156200013e575060203d10155b80156200014c575060ff8111155b62000159575f806200015d565b6001815b94509450505050915091565b600580546001600160a01b038381166001600160a01b0319831681179093556040519116919082907f8be0079c531659141344cd1fd0a4f28419497f9722a3daafe3b4186f6b6457e0905f90a35050565b5f805f60405f855160208701885afa92505f51915060205190509250925092565b6001600160a01b0381168114620001f0575f80fd5b50565b634e487b7160e01b5f52604160045260245ffd5b5f82601f83011262000217575f80fd5b81516001600160401b0380821115620002345762000234620001f3565b604051601f8301601f19908116603f011681019082821181831017156200025f576200025f620001f3565b81604052838152602092508660208588010111156200027c575f80fd5b5f91505b838210156200029f578582018301518183018401529082019062000280565b5f602085830101528094505050505092915050565b5f805f8060808587031215620002c8575f80fd5b8451620002d581620001db565b60208601519094506001600160401b0380821115620002f2575f80fd5b620003008883890162000207565b9450604087015191508082111562000316575f80fd5b50620003258782880162000207565b92505060608501516200033881620001db565b939692955090935050565b600181811c908216806200035857607f821691505b6020821081036200037757634e487b7160e01b5f52602260045260245ffd5b50919050565b601f821115620003c857805f5260205f20601f840160051c81016020851015620003a45750805b601f840160051c820191505b81811015620003c5575f8155600101620003b0565b50505b505050565b81516001600160401b03811115620003e957620003e9620001f3565b6200040181620003fa845462000343565b846200037d565b602080601f83116001811462000437575f84156200041f5750858301515b5f19600386901b1c1916600185901b17855562000491565b5f85815260208120601f198616915b82811015620004675788860151825594840194600190910190840162000446565b50858210156200048557878501515f19600388901b60f8161c191681555b505060018460011b0185555b505050505050565b60805160a051611419620004d75f395f61059901525f818161027a0152818161041d0152818161075a01528181610d4d0152610de501526114195ff3fe608060405234801561000f575f80fd5b50600436106101c6575f3560e01c80638da5cb5b116100fe578063c63d75b61161009e578063dd62ed3e1161006e578063dd62ed3e146103bc578063ddc63262146103f4578063ef8b30f714610383578063f2fde38b14610407575f80fd5b8063c63d75b6146102b2578063c6e6f59214610383578063ce96cb7714610396578063d905777e146103a9575f80fd5b8063a9059cbb116100d9578063a9059cbb14610337578063b3d7f6b91461034a578063b460af941461035d578063ba08765214610370575f80fd5b80638da5cb5b1461030b57806394bf804d1461031c57806395d89b411461032f575f80fd5b8063313ce567116101695780634cdad506116101445780634cdad506146101fa5780636e553f65146102c657806370a08231146102d9578063715018a614610301575f80fd5b8063313ce5671461025e57806338d52e0f14610278578063402d267d146102b2575f80fd5b8063095ea7b3116101a4578063095ea7b31461020d5780630a28a4771461023057806318160ddd1461024357806323b872dd1461024b575f80fd5b806301e1d114146101ca57806306fdde03146101e557806307a2d13a146101fa575b5f80fd5b6101d261041a565b6040519081526020015b60405180910390f35b6101ed6104a9565b6040516101dc919061104e565b6101d261020836600461109a565b610539565b61022061021b3660046110cc565b61054a565b60405190151581526020016101dc565b6101d261023e36600461109a565b610561565b6002546101d2565b6102206102593660046110f4565b61056d565b610266610592565b60405160ff90911681526020016101dc565b7f00000000000000000000000000000000000000000000000000000000000000005b6040516001600160a01b0390911681526020016101dc565b6101d26102c036600461112d565b505f1990565b6101d26102d4366004611146565b6105bd565b6101d26102e736600461112d565b6001600160a01b03165f9081526020819052604090205490565b6103096105ee565b005b6005546001600160a01b031661029a565b6101d261032a366004611146565b610601565b6101ed61061c565b6102206103453660046110cc565b61062b565b6101d261035836600461109a565b610638565b6101d261036b366004611170565b610644565b6101d261037e366004611170565b61069a565b6101d261039136600461109a565b6106e7565b6101d26103a436600461112d565b6106f2565b6101d26103b736600461112d565b6106fb565b6101d26103ca3660046111a9565b6001600160a01b039182165f90815260016020908152604080832093909416825291909152205490565b61030961040236600461109a565b610718565b61030961041536600461112d565b610826565b5f7f00000000000000000000000000000000000000000000000000000000000000006040516370a0823160e01b81523060048201526001600160a01b0391909116906370a0823190602401602060405180830381865afa158015610480573d5f803e3d5ffd5b505050506040513d601f19601f820116820180604052508101906104a491906111d1565b905090565b6060600380546104b8906111e8565b80601f01602080910402602001604051908101604052809291908181526020018280546104e4906111e8565b801561052f5780601f106105065761010080835404028352916020019161052f565b820191905f5260205f20905b81548152906001019060200180831161051257829003601f168201915b5050505050905090565b5f610544825f610863565b92915050565b5f3361055781858561089b565b5060019392505050565b5f6105448260016108ad565b5f3361057a8582856108dc565b610585858585610945565b60019150505b9392505050565b5f6104a4817f0000000000000000000000000000000000000000000000000000000000000000611234565b5f5f196105ce565b60405180910390fd5b5f6105d8856106e7565b90506105e6338587846109a2565b949350505050565b6105f6610a12565b6105ff5f610a3f565b565b5f5f195f61060e85610638565b90506105e6338583886109a2565b6060600480546104b8906111e8565b5f33610557818585610945565b5f610544826001610863565b5f8061064f836106f2565b90508085111561067857828582604051633fa733bb60e21b81526004016105c59392919061124d565b5f61068286610561565b90506106913386868985610a90565b95945050505050565b5f806106a5836106fb565b9050808511156106ce57828582604051632e52afbb60e21b81526004016105c59392919061124d565b5f6106d886610539565b9050610691338686848a610a90565b5f610544825f6108ad565b5f610544610208835b6001600160a01b0381165f90815260208190526040812054610544565b610720610a12565b5f81116107585760405162461bcd60e51b81526004016105c5906020808252600490820152637a65726f60e01b604082015260600190565b7f00000000000000000000000000000000000000000000000000000000000000006040516323b872dd60e01b8152336004820152306024820152604481018390526001600160a01b0391909116906323b872dd906064016020604051808303815f875af11580156107cb573d5f803e3d5ffd5b505050506040513d601f19601f820116820180604052508101906107ef919061126e565b506040518181527f80f97f878e16410266694f134ddf012f2be424f54f8b5cafa107eccc51d00d589060200160405180910390a150565b61082e610a12565b6001600160a01b03811661085757604051631e4fbdf760e01b81525f60048201526024016105c5565b61086081610a3f565b50565b5f61058b61086f61041a565b61087a90600161128d565b6108855f600a611380565b600254610892919061128d565b85919085610b2f565b6108a88383836001610b71565b505050565b5f61058b6108bc82600a611380565b6002546108c9919061128d565b6108d161041a565b61089290600161128d565b6001600160a01b038381165f908152600160209081526040808320938616835292905220545f1981101561093f578181101561093157828183604051637dc7a0d960e11b81526004016105c59392919061124d565b61093f84848484035f610b71565b50505050565b6001600160a01b03831661096e57604051634b637e8f60e11b81525f60048201526024016105c5565b6001600160a01b0382166109975760405163ec442f0560e01b81525f60048201526024016105c5565b6108a8838383610c35565b6109ac8483610d48565b6109b68382610d78565b826001600160a01b0316846001600160a01b03167fdcbc1c05240f31ff3ad067ef1ee35ce4997762752e3a095284754544f4c709d78484604051610a04929190918252602082015260400190565b60405180910390a350505050565b6005546001600160a01b031633146105ff5760405163118cdaa760e01b81523360048201526024016105c5565b600580546001600160a01b038381166001600160a01b0319831681179093556040519116919082907f8be0079c531659141344cd1fd0a4f28419497f9722a3daafe3b4186f6b6457e0905f90a35050565b826001600160a01b0316856001600160a01b031614610ab457610ab48386836108dc565b610abe8382610dac565b610ac88483610de0565b826001600160a01b0316846001600160a01b0316866001600160a01b03167ffbde797d201c681b91056529119e0b02407c7bb96a4a2c75c01fc9667232c8db8585604051610b20929190918252602082015260400190565b60405180910390a45050505050565b5f610b5c610b3c83610e0b565b8015610b5757505f8480610b5257610b5261138e565b868809115b151590565b610b67868686610e37565b610691919061128d565b6001600160a01b038416610b9a5760405163e602df0560e01b81525f60048201526024016105c5565b6001600160a01b038316610bc357604051634a1406b160e11b81525f60048201526024016105c5565b6001600160a01b038085165f908152600160209081526040808320938716835292905220829055801561093f57826001600160a01b0316846001600160a01b03167f8c5be1e5ebec7d5bd14f71427d1e84f3dd0314c0f7b2291e5b200ac8c7c3b92584604051610a0491815260200190565b6001600160a01b038316610c5f578060025f828254610c54919061128d565b90915550610cbc9050565b6001600160a01b0383165f9081526020819052604090205481811015610c9e5783818360405163391434e360e21b81526004016105c59392919061124d565b6001600160a01b0384165f9081526020819052604090209082900390555b6001600160a01b038216610cd857600280548290039055610cf6565b6001600160a01b0382165f9081526020819052604090208054820190555b816001600160a01b0316836001600160a01b03167fddf252ad1be2c89b69c2b068fc378daa952ba7f163c4a11628f55a4df523b3ef83604051610d3b91815260200190565b60405180910390a3505050565b610d747f0000000000000000000000000000000000000000000000000000000000000000833084610ee7565b5050565b6001600160a01b038216610da15760405163ec442f0560e01b81525f60048201526024016105c5565b610d745f8383610c35565b6001600160a01b038216610dd557604051634b637e8f60e11b81525f60048201526024016105c5565b610d74825f83610c35565b610d747f00000000000000000000000000000000000000000000000000000000000000008383610f1d565b5f6002826003811115610e2057610e206113a2565b610e2a91906113b6565b60ff166001149050919050565b5f805f610e448686610f52565b91509150815f03610e6857838181610e5e57610e5e61138e565b049250505061058b565b818411610e7f57610e7f6003851502601118610f6e565b5f848688095f868103871696879004966002600389028118808a02820302808a02820302808a02820302808a02820302808a02820302808a02909103029181900381900460010185841190960395909502919093039390930492909217029150509392505050565b610ef5848484846001610f7f565b61093f57604051635274afe760e01b81526001600160a01b03851660048201526024016105c5565b610f2a8383836001610fec565b6108a857604051635274afe760e01b81526001600160a01b03841660048201526024016105c5565b5f805f1983850993909202808410938190039390930393915050565b634e487b715f52806020526024601cfd5b6040516323b872dd60e01b5f8181526001600160a01b038781166004528616602452604485905291602083606481808c5af1925060015f51148316610fdb578383151615610fcf573d5f823e3d81fd5b5f883b113d1516831692505b604052505f60605295945050505050565b60405163a9059cbb60e01b5f8181526001600160a01b038616600452602485905291602083604481808b5af1925060015f51148316611042578383151615611036573d5f823e3d81fd5b5f873b113d1516831692505b60405250949350505050565b5f602080835283518060208501525f5b8181101561107a5785810183015185820160400152820161105e565b505f604082860101526040601f19601f8301168501019250505092915050565b5f602082840312156110aa575f80fd5b5035919050565b80356001600160a01b03811681146110c7575f80fd5b919050565b5f80604083850312156110dd575f80fd5b6110e6836110b1565b946020939093013593505050565b5f805f60608486031215611106575f80fd5b61110f846110b1565b925061111d602085016110b1565b9150604084013590509250925092565b5f6020828403121561113d575f80fd5b61058b826110b1565b5f8060408385031215611157575f80fd5b82359150611167602084016110b1565b90509250929050565b5f805f60608486031215611182575f80fd5b83359250611192602085016110b1565b91506111a0604085016110b1565b90509250925092565b5f80604083850312156111ba575f80fd5b6111c3836110b1565b9150611167602084016110b1565b5f602082840312156111e1575f80fd5b5051919050565b600181811c908216806111fc57607f821691505b60208210810361121a57634e487b7160e01b5f52602260045260245ffd5b50919050565b634e487b7160e01b5f52601160045260245ffd5b60ff818116838216019081111561054457610544611220565b6001600160a01b039390931683526020830191909152604082015260600190565b5f6020828403121561127e575f80fd5b8151801515811461058b575f80fd5b8082018082111561054457610544611220565b600181815b808511156112da57815f19048211156112c0576112c0611220565b808516156112cd57918102915b93841c93908002906112a5565b509250929050565b5f826112f057506001610544565b816112fc57505f610544565b8160018114611312576002811461131c57611338565b6001915050610544565b60ff84111561132d5761132d611220565b50506001821b610544565b5060208310610133831016604e8410600b841016171561135b575081810a610544565b61136583836112a0565b805f190482111561137857611378611220565b029392505050565b5f61058b60ff8416836112e2565b634e487b7160e01b5f52601260045260245ffd5b634e487b7160e01b5f52602160045260245ffd5b5f60ff8316806113d457634e487b7160e01b5f52601260045260245ffd5b8060ff8416069150509291505056fea2646970667358221220514943dd760df3e70c866b0a4b4f622aedb5977c7411329c7afc39a22870814964736f6c63430008180033","linkReferences":{}},"methodIdentifiers":{"allowance(address,address)":"dd62ed3e","approve(address,uint256)":"095ea7b3","asset()":"38d52e0f","balanceOf(address)":"70a08231","convertToAssets(uint256)":"07a2d13a","convertToShares(uint256)":"c6e6f592","decimals()":"313ce567","deposit(uint256,address)":"6e553f65","harvest(uint256)":"ddc63262","maxDeposit(address)":"402d267d","maxMint(address)":"c63d75b6","maxRedeem(address)":"d905777e","maxWithdraw(address)":"ce96cb77","mint(uint256,address)":"94bf804d","name()":"06fdde03","owner()":"8da5cb5b","previewDeposit(uint256)":"ef8b30f7","previewMint(uint256)":"b3d7f6b9","previewRedeem(uint256)":"4cdad506","previewWithdraw(uint256)":"0a28a477","redeem(uint256,address,address)":"ba087652","renounceOwnership()":"715018a6","symbol()":"95d89b41","totalAssets()":"01e1d114","totalSupply()":"18160ddd","transfer(address,uint256)":"a9059cbb","transferFrom(address,address,uint256)":"23b872dd","transferOwnership(address)":"f2fde38b","withdraw(uint256,address,address)":"b460af94"},"id":54}